:400000000080002011000000910300009103000008B5044B1A6803F53F5302331A6000F0BFF900BFFA46004010B5054C237833B9044B13B10448AFF300800123237010BD97
:400040003881FF1F0000000090090000084B10B51BB108490848AFF300800848036803B910BD074B002BFBD0BDE81040184700BF000000003C81FF1F90090000C880FF1FF0
:400080000000000010B50446532805D1002000F0D9FA002000F0E2FA492C05D1012000F0D1FA002000F0DAFA442C05D1002000F0C9FA012000F0D2FA10BD00BF38B500F0A7
:4000C00089FAE8B100252C4600F06EFA0A2814D030B1631CDBB20B4A1055042B0DD81C4608480023035510F8015B00F07DFBC0B2054BD87000F0C2F9E6E72846FFF7C2FF84
:4001000038BD00BF6081FF1F5481FF1F08B562B600F0FEF900F03AFA054800F073FA00F0D5FA002000F0A6FAFFF7C8FFFCE700BF94090000FEE700BFF0B40022174611E06C
:4001400050F82760F3B226F0FF0608E001EB420511F812406D78A5550132013BDBB2002BF4D10137162FEBD9F0BC7047064B1B78DBB203F00701054A11701B0901321370F5
:400180004422034B1A707047CF0100496E5800407658004008B50A46002100F060FB08BD38B51925284B1D801823284A137040F65F1227490A8002310B7002310A80254AF9
:4001C00013700222244B1A7008224FF040231A70032103F500731970204B1B78DBB220490B70204B1A8041F25122023B1A8000240CE01D4B1B7803F0010343EA440404F095
:4002000003044FF4F07000F0DFFA013D0DB1032CEFD115B90320FFF78DFF144B4FF480721A8007221A70002211490A704820023108701A700222033B1A700E4A137843F077
:400240000703137038BD00BF8040004082400040844000408A4000400043004008010049A146004022420040254200400440004006400040A243004008B500F0E5FA08BD66
:4002800038B572B62F4A137843F00403137000240CE02D4D630019194A0011462A44084691882858FFF776FF0134E4B2072CF0D926494FF09040FFF73FFF254A254B1A6016
:4002C000254A137843F0020313701032137843F002031370214C237843F040032370A2F58632513A137843F0100313700A221C491C48FFF7C1FF08221B491C48FFF7BCFF34
:400300000A221B491B48FFF7B7FF08221A491B48FFF7B2FF1A4A137843F008031370194D61232B70FFF73CFF81232B700122164B1A70FFF71BFF0E2221461448FFF79CFF40
:4003400038BD00BFE8460040AC0900005C000048040404C45808014003500140A04300402C070048C0510040380700481251004040070048205100404C0700483251004046
:40038000224300400048004004000840B043004008B500F02DFA03680C2B00D1FEE7FEE708B5104E104D16E029686B68AC68002204E051F8040B43F8040B0432A242F8D10F
:4003C000E868002203E0002143F8041B04328242F9D11035013E002EE6D100F00FFAFFF795FEFEE701000000040B000008B5104A104B1A60104A136843F400731360002388
:400400000AE0032B03D80D4A52F8231000E00C490C4A42F8231001332F2BF2D90A4B1A780A4B1A70074A0A4B1A60FFF729FF08BD0004FA050CED00E014ED00E0000000001E
:40044000910300000080FF1FBC760040C080FF1F08ED00E0024A137843F080031370704775650040014B1870704700BF05650040014B1870704700BF45650040014B1870C8
:40048000704700BF25650040014B1870704700BF85650040014B1878704700BF65650040014B1878704700BF5565004008B501E0FFF7F6FFFFF7EEFF10F0100FF8D108BDC7
:4004C00010B5114A137803F0C00343F0090313700E4C237843F001032370FF20FFF7C2FFFF20FFF7C5FF7F20FFF7C8FF0020FFF7CBFF00F071F9237843F01003237000F071
:400500006FF9FFF7D3FF10BD756500409565004008B5054B1B7823B9FFF7D2FF0122024B1A70FFF797FF08BD5881FF1F7222084B1A702022063B1A700622A3F5AC731A70FE
:40054000472210331A7000224F331A70704700BF8A65004010B500F03FF904460A4A137843F020031370063A137843F010031370F93A137843F01003137000F055F82046C5
:4005800000F02EF910BD00BF9A65004008B5054B1B7823B9FFF7CAFF0122024B1A70FFF7D9FF08BD5981FF1F084B1B78DBB213F0200F06D0064A1078C0B213F01E0F02D1D1
:4005C0007047002070470020704700BF6465004048650040044B1B7813F0200F01D0012070470020704700BF64650040034B1B7813F0040FFAD1024B187070476B64004028
:400600004B64004038B5074B1B782BB938BDFFF7EDFF0134A4B201E005460024285D0028F5D138BD5981FF1F054A137843F0010313701032137843F001031370704700BF72
:40064000A2430040044A137803F0FE0300F0010018431070704700BF30510040044A137803F0FD03400000F002001843107070473051004008B5002803DBC0B280F080000F
:4006800001E08038C0B200F047F808BD024B187800F00F00704700BF6D640040014B1870704700BF8D64004008B50F20FFF7F6FFFFF7ECFF00F090F8034A137843F010030F
:4006C000137000F08DF808BD9D64004008B500F06DF8802000F020F8044B1B7813B90122024B1A70FFF7E0FF08BD00BF5B81FF1F024A137843F08003137070477B65004060
:40070000014B1870704700BF88640040014B1878704700BF68640040014B1870704700BF08640040014B1878704700BF48640040014B1870704700BF28640040014B1870C7
:40074000704700BF3864004008B501E0FFF7EAFFFFF7DCFF10F0400FF8D108BD08B5114B1A7802F0F8021A701A7802F0FC021A70FFF7EAFF8020FFF7DBFF8020FFF7CCFF1F
:400780000020FFF7BDFFFFF7C1FF8020FFF7D6FF00F022F8044A137843F01003137000F01FF808BD7B6500409864004008B5054B1B7823B9FFF7D2FF0122024B1A70FFF73F
:4007C00097FF08BD5C81FF1F0230800803D000BF01380046FCD17047EFF3108072B6704780F31088704700BF0A22002100F0C6B8014B1868704700BF2C81FF1F0E4B70B53C
:400800001E460E4C0025E41AA410A54204D056F8253098470135F8E700F062F9084B094C1E46E41AA4100025A54204D056F8253098470135F8E770BDEC0A0000EC0A000038
:40084000EC0A0000F40A000010B5431E0A44914204D011F8014B03F8014FF8E710BD03460244934202D003F8011BFAE7704700002DE9F0470F4680463F48D0F800903D466E
:4008800015F8014B09EB0400407800F0080000F0FF0608B12F46F2E72D2C03D1BD1C7C78012603E02B2C04BF7C78BD1C13B1102B0AD15BE0302C57D1287800F0DF005828C8
:4008C0004DD16C7810230235002E14BF4FF0004C6FF0004CBCFBF3FA0027384603FB1ACC09EB040E9EF801E01EF0040F01D0303C0BE01EF0030E1BD0BEF1010F0CBF4FF08F
:40090000370E4FF0570ECEEB0404A34210DDB7F1FF3F0AD0504506D801D1644503DC03FB0040012701E04FF0FF3715F8014BD7E77B1C0CD1002E4FF0220314BF4FF0004083
:400940006FF00040C8F800302AB9BDE8F08706B1404272B107B1691E1160BDE8F0873024002BB1D10823AFE70A23ADE7302CA3D0AAE7BDE8F08700BF3081FF1F13460A468B
:40098000014602480068FFF773BF00BF2C81FF1F00000000686F6C612065737461206573206C61207072756562610000005100401000405100403000F05100401000000064
:4009C0000140001000140140000800400140000A004C014000020050014020004300002020202020202020202828282828202020202020202020202020202020202020888B
:400A00001010101010101010101010101010100404040404040404040410101010101010414141414141010101010101010101010101010101010101010110101010101034
:400A40004242424242420202020202020202020202020202020202020202101010102000000000000000000000000000000000000000000000000000000000000000000062
:400A80000000000000000000000000000000000000000000000000000000000000000000000000000000000000000000000000000000000000000000000000000000000036
:400AC0000000000000000000000000000000000000000000000000000000000000000000F8B500BFF8BC08BC9E4670474D000000ED030000F8B500BFF8BC08BC9E467047BB
:400B000029000000180B0000C880FF1F700000003000000000000000000000000000000000000000000000000000000000000000000000000000000000000000DC0900007E
:400B4000000000000000000000000000000000000000000000000000000000000000000000000000000000000000000000000000000000000000000000000000CC80FF1F0B
:400B8000DE0900000000000000000000000000000000000000000000000000000000000000000000000000000000000000000000000000000000000000000000000000004E
:400BC00000000000000000000000000000000000000000000000000000000000000000000000000000000000000000000000000000000000000000000000000000000000F5
:400C000000000000000000000000000000000000000000000000000000000000000000000000000000000000000000000000000000000000000000000000000000000000B4
:400C40000000000000000000000000000000000000000000000000000000000000000000000000000000000000000000000000000000000000000000000000000000000074
:400C80000000000000000000000000000000000000000000000000000000000000000000000000000000000000000000000000000000000000000000000000000000000034
:020000040003F7
:0200000480007A
:4000000003520040036400400365004058080140480901404F0A01404F0B0140560C01402D0D0140411401403B15014002170140521801403B1901403A1A0140411B014063
:400040000244014004450140044601400147014003490140044D014006500140190860806440886F8B0F8D0F8438850D8A7201940360040D0612099E0A010B600C3B1238BA
:4000800015CF164017301C0E1D731E1020222204230F24072620283E29FD2A012B022D302FC9340735FF36783F1040434101452C4640473E483B49FF4AFF4BFF4DA04F014B
:4000C0005018540F580459045A045B045C015D115F056040628064406540668068406A806C406D206E80840185188602870488018A028B018F1E90029201951897029C019B
:400100009D0E9E06A916AB08AD10AF02B003B31EB404B701BA02D804D904DC11DF0100100320051007210A400B010C010E200F021404168017041A401B201D101F802020DE
:4001400021042321261029202B012C042D602EC22F803280330436803704381039483C203F024401450946024C804D024F045402560857105E805F1A660867047E8090109D
:400180009420954099209B059D01A2C0A301A410A790AD01AE40AF20C0E6C2B9C470CABCCC5ACEAED0D0D6F0D860DE80EE08020104380644080109010C600E18105812222A
:4001C00013011502160618011C121E2023012428270428202C803101323E33043401350236C038803E103F11580459045C105F0184148608880189068D08920A95069601ED
:400200009D039E10A006A208A406A608A905AC06AE18B001B308B61EB707B980BA80BE01BF04C015C104C50BC6CEC80DC9FFCAFFCBFFCEF0CF44D00CD401D804D904DA0468
:40024000DB04DC10DF01E6C0EA40EB0200040102020504240604084009020A120B080C400F60102813401420150216201740180219101A121B081D801E8220102210238062
:40028000268427012BA02D203101330835033680370438203CA04582460147404C204F40544056605C205D015E488210878490049102924093409402954099209B049D1057
:4002C0009E209F81A008A102A301A410A601AB08B102B320C06FC2BFC4B7CA23CC53CE34D090D210D6F0E404EA04020C030F044C0613090C0B010D080F0111071233150C39
:40030000160817021C711E062071220E23102610290B2B04301032603310340F350F38083A203E054003470449FF4A074BFF4C404D204EF04F055008580459045A045C10F8
:400340005F01604061A8624063208306843C8506870188018A028C1C90019202930394019642970298309A0C9F05A00EA231A301A680A828AA14AC14AE28B003B107B24097
:40038000B43CB680BA02BB02D40FD804D904DB04DC01DD10DF010329040609240B800C480E020FC0114013191502162019201BA91C041D081E402103252427042B402D209E
:4003C0002FC030483102370538063C203D403F1345085408574059125A045B808A048B01C037C2BEC43FCAA1CCCBCEB3D040D60F01040C01110418011B011D042104220109
:400400002B012E012F02310434013501370238203A023F115418580459045B045C205F01800183018E019604A202AA04AB01B001B202B404B701BE10C030C102C5D0C71223
:40044000C832C9FFCAFFCBFFCDA0CF04D018D280D405D804D904DA04DB04DC22DD22DF01E040E2C0E440E540E6C0E8C0EAC0ECC0EEC000400401060108200D08108216886B
:40048000184019011B201D081E481F08200121012304268029012A102B012F083082332038023F02450846084F015609570158015E485F01624063047680802185018801D6
:4004C0008AC08C809A109D01A002A802B501C091C222C459CA2DCC0DCE81D060D6D1D80CE280E402E604EA048610E202000605040B080C0410061101120123032F0430029E
:40050000310232043308340135043701380A3E043F504036410542024401450C460E480549FF4AFF4BFF4C624DA04EF04F41500C580459045A045C115F016640670269101B
:400540006A306B106D106E106F12811C83018406851888078B048C068E018F80911F94019606970399089A019F40A004A110A402A504A7A0A907AB18AC07AD1CAF02B2077A
:40058000B31FB520B7C0BB08BF40D804D904DF01010402090502070109040A080C0210E0114019041C081D092190220824202601270A28602A102B022C022D023020320584
:4005C0003340340835043601380839A43A013C083F204408458446104DC04E054F0454408440942099129B019D019F0AA002A310A509B080B310C097C216C40DCA9FCC8F6F
:40060000CE6FD070D2300001041305E7060C080C09E70A130C1F0D8013181403171819191A131B061C021D541F212008212A234124042518280C2B182C0F2D182E103118D2
:40064000321C3380340F350737603A2856025713580459045B045F0186018A029A019B019C02A202B101B201B602BE44D280D804D904DB04DC10DD10DF010180020803A04B
:4006800005140A280B010E020F0410A81201164018201B241C201E012080214022B42301260129802BA432A43302351039543D023E015A02695470AC76407D087F20822027
:4006C0008360860188508C308E018F80930494089580960899949C209E019F40A208A302A4A0A505AA08AB02B580C06FC2C7C41FCA0FCC2FCE0ED601E6E0EC407C40DE048E
:40070000038007109440C00C80409440A380AB10AF8059408940D48012808E80C408E20200030C030E0310071A051C03800040808000800000000000000B0B00000000000A
:40074000070000070000000000000000000B0B000800000000000000000000000000000000000000000000000000000000000000000000000000000000000000000000004D
:400780000000000000000000000000000000000000000000000000000000000000000000000000000000000000000000000000000000000000000000000000000000000039
:4007C00000000000000000000000000000000000000000000000000000000000000000000000000000000000000000000000000000000000000000000000000000000000F9
:4008000000000000000000000000000000000000000000000000000000000000000000000000000000000000000000000000000000000000000000000000000000000000B8
:400840000000000000000000000000000000000000000000000000000000000000000000000000000000000000000000000000000000000000000000000000000000000078
:0200000490006A
:0400000000004005B7
:0200000490105A
:04000000BC90ACAF55
:0200000490303A
:02000000BD2120
:0200000490402A
:4000000000000000000000000000000000000000000000000000000000000000000000000000000000000000000000000000000000000000000000000000000000000000C0
:400040000000000000000000000000000000000000000000000000000000000000000000000000000000000000000000000000000000000000000000000000000000000080
:400080000000000000000000000000000000000000000000000000000000000000000000000000000000000000000000000000000000000000000000000000000000000040
:4000C0000000000000000000000000000000000000000000000000000000000000000000000000000000000000000000000000000000000000000000000000000000000000
:0200000490501A
:0C00000000012E16106900012E1BCD8A95
:00000001FF